{
  "_format": "hh-sol-artifact-1",
  "contractName": "DFStrategyV1",
  "sourceName": "contracts/df/DFStrategyV1.sol",
  "abi": [
    {
      "inputs": [
        {
          "internalType": "address",
          "name": "_dfrewards",
          "type": "address"
        }
      ],
      "stateMutability": "nonpayable",
      "type": "constructor"
    },
    {
      "inputs": [
        {
          "internalType": "address[]",
          "name": "tokenAddresses",
          "type": "address[]"
        }
      ],
      "name": "claim",
      "outputs": [
        {
          "internalType": "bool",
          "name": "",
          "type": "bool"
        }
      ],
      "stateMutability": "nonpayable",
      "type": "function"
    },
    {
      "inputs": [
        {
          "internalType": "address",
          "name": "tokenAddress",
          "type": "address"
        },
        {
          "internalType": "uint256",
          "name": "totalAmount",
          "type": "uint256"
        },
        {
          "internalType": "address",
          "name": "_veOCEAN",
          "type": "address"
        }
      ],
      "name": "claimAndStake",
      "outputs": [
        {
          "internalType": "bool",
          "name": "",
          "type": "bool"
        }
      ],
      "stateMutability": "nonpayable",
      "type": "function"
    },
    {
      "inputs": [
        {
          "internalType": "address",
          "name": "_to",
          "type": "address"
        },
        {
          "internalType": "address[]",
          "name": "tokenAddresses",
          "type": "address[]"
        }
      ],
      "name": "claimMultiple",
      "outputs": [],
      "stateMutability": "nonpayable",
      "type": "function"
    },
    {
      "inputs": [
        {
          "internalType": "address",
          "name": "_to",
          "type": "address"
        },
        {
          "internalType": "address[]",
          "name": "tokenAddresses",
          "type": "address[]"
        }
      ],
      "name": "claimables",
      "outputs": [
        {
          "internalType": "uint256[]",
          "name": "result",
          "type": "uint256[]"
        }
      ],
      "stateMutability": "view",
      "type": "function"
    },
    {
      "inputs": [],
      "name": "id",
      "outputs": [
        {
          "internalType": "uint8",
          "name": "",
          "type": "uint8"
        }
      ],
      "stateMutability": "view",
      "type": "function"
    }
  ],
  "bytecode": "0x60806040526001805460ff60a01b1916600160a01b17905534801561002357600080fd5b50604051610dff380380610dff8339810160408190526100429161006c565b6001600081905580546001600160a01b0319166001600160a01b039290921691909117905561009c565b60006020828403121561007e57600080fd5b81516001600160a01b038116811461009557600080fd5b9392505050565b610d54806100ab6000396000f3fe608060405234801561001057600080fd5b50600436106100575760003560e01c80630758ca751461005c578063081df9c314610085578063318d9e5d1461009a5780635778b143146100bd578063af640d0f146100d0575b600080fd5b61006f61006a366004610aac565b6100f6565b60405161007c9190610aff565b60405180910390f35b610098610093366004610aac565b610228565b005b6100ad6100a8366004610b43565b6102f6565b604051901515815260200161007c565b6100ad6100cb366004610b85565b61030c565b6001546100e490600160a01b900460ff1681565b60405160ff909116815260200161007c565b60608167ffffffffffffffff81111561011157610111610bc1565b60405190808252806020026020018201604052801561013a578160200160208202803683370190505b50905060005b8281101561021f576001546001600160a01b031663d4570c1c8686868581811061016c5761016c610bd7565b90506020020160208101906101819190610bed565b6040516001600160e01b031960e085901b1681526001600160a01b03928316600482015291166024820152604401602060405180830381865afa1580156101cc573d6000803e3d6000fd5b505050506040513d601f19601f820116820180604052508101906101f09190610c08565b82828151811061020257610202610bd7565b6020908102919091010152610218600182610c37565b9050610140565b505b9392505050565b60005b818110156102f0576001546001600160a01b031663b4ba9e118585858581811061025757610257610bd7565b905060200201602081019061026c9190610bed565b6040516001600160e01b031960e085901b1681526001600160a01b039283166004820152911660248201526044016020604051808303816000875af11580156102b9573d6000803e3d6000fd5b505050506040513d601f19601f820116820180604052508101906102dd9190610c08565b50806102e881610c4f565b91505061022b565b50505050565b6000610303338484610228565b50600192915050565b6000600260005414156103665760405162461bcd60e51b815260206004820152601f60248201527f5265656e7472616e637947756172643a207265656e7472616e742063616c6c0060448201526064015b60405180910390fd5b6002600055600154604051633515c30760e21b81523360048201526001600160a01b0386811660248301528592169063d4570c1c90604401602060405180830381865afa1580156103bb573d6000803e3d6000fd5b505050506040513d601f19601f820116820180604052508101906103df9190610c08565b10156104225760405162461bcd60e51b81526020600482015260126024820152714e6f7420656e6f756768207265776172647360701b604482015260640161035d565b6040516370a0823160e01b81523060048201526000906001600160a01b038616906370a0823190602401602060405180830381865afa158015610469573d6000803e3d6000fd5b505050506040513d601f19601f8201168201806040525081019061048d9190610c08565b600154604051631638efb160e11b81523360048201526001600160a01b03888116602483015292935060009290911690632c71df62906044016020604051808303816000875af11580156104e5573d6000803e3d6000fd5b505050506040513d601f19601f820116820180604052508101906105099190610c08565b6040516370a0823160e01b81523060048201529091506000906001600160a01b038816906370a0823190602401602060405180830381865afa158015610553573d6000803e3d6000fd5b505050506040513d601f19601f820116820180604052508101906105779190610c08565b9050816105848483610c6a565b146105c65760405162461bcd60e51b81526020600482015260126024820152714e6f7420656e6f756768207265776172647360701b604482015260640161035d565b6105da6001600160a01b0388168688610674565b604051631d23139f60e11b8152336004820152602481018790526001600160a01b03861690633a46273e90604401600060405180830381600087803b15801561062257600080fd5b505af1158015610636573d6000803e3d6000fd5b505050508582111561066157610661336106508885610c6a565b6001600160a01b038a1691906107c1565b6001935050505060016000559392505050565b8015806106ee5750604051636eb1769f60e11b81523060048201526001600160a01b03838116602483015284169063dd62ed3e90604401602060405180830381865afa1580156106c8573d6000803e3d6000fd5b505050506040513d601f19601f820116820180604052508101906106ec9190610c08565b155b6107595760405162461bcd60e51b815260206004820152603660248201527f5361666545524332303a20617070726f76652066726f6d206e6f6e2d7a65726f60448201527520746f206e6f6e2d7a65726f20616c6c6f77616e636560501b606482015260840161035d565b6040516001600160a01b0383166024820152604481018290526107bc90849063095ea7b360e01b906064015b60408051601f198184030181529190526020810180516001600160e01b03166001600160e01b0319909316929092179091526107f1565b505050565b6040516001600160a01b0383166024820152604481018290526107bc90849063a9059cbb60e01b90606401610785565b6000610846826040518060400160405280602081526020017f5361666545524332303a206c6f772d6c6576656c2063616c6c206661696c6564815250856001600160a01b03166108c39092919063ffffffff16565b8051909150156107bc57808060200190518101906108649190610c81565b6107bc5760405162461bcd60e51b815260206004820152602a60248201527f5361666545524332303a204552433230206f7065726174696f6e20646964206e6044820152691bdd081cdd58d8d9595960b21b606482015260840161035d565b60606108d284846000856108da565b949350505050565b60608247101561093b5760405162461bcd60e51b815260206004820152602660248201527f416464726573733a20696e73756666696369656e742062616c616e636520666f6044820152651c8818d85b1b60d21b606482015260840161035d565b6001600160a01b0385163b6109925760405162461bcd60e51b815260206004820152601d60248201527f416464726573733a2063616c6c20746f206e6f6e2d636f6e7472616374000000604482015260640161035d565b600080866001600160a01b031685876040516109ae9190610ccf565b60006040518083038185875af1925050503d80600081146109eb576040519150601f19603f3d011682016040523d82523d6000602084013e6109f0565b606091505b5091509150610a00828286610a0b565b979650505050505050565b60608315610a1a575081610221565b825115610a2a5782518084602001fd5b8160405162461bcd60e51b815260040161035d9190610ceb565b80356001600160a01b0381168114610a5b57600080fd5b919050565b60008083601f840112610a7257600080fd5b50813567ffffffffffffffff811115610a8a57600080fd5b6020830191508360208260051b8501011115610aa557600080fd5b9250929050565b600080600060408486031215610ac157600080fd5b610aca84610a44565b9250602084013567ffffffffffffffff811115610ae657600080fd5b610af286828701610a60565b9497909650939450505050565b6020808252825182820181905260009190848201906040850190845b81811015610b3757835183529284019291840191600101610b1b565b50909695505050505050565b60008060208385031215610b5657600080fd5b823567ffffffffffffffff811115610b6d57600080fd5b610b7985828601610a60565b90969095509350505050565b600080600060608486031215610b9a57600080fd5b610ba384610a44565b925060208401359150610bb860408501610a44565b90509250925092565b634e487b7160e01b600052604160045260246000fd5b634e487b7160e01b600052603260045260246000fd5b600060208284031215610bff57600080fd5b61022182610a44565b600060208284031215610c1a57600080fd5b5051919050565b634e487b7160e01b600052601160045260246000fd5b60008219821115610c4a57610c4a610c21565b500190565b6000600019821415610c6357610c63610c21565b5060010190565b600082821015610c7c57610c7c610c21565b500390565b600060208284031215610c9357600080fd5b8151801515811461022157600080fd5b60005b83811015610cbe578181015183820152602001610ca6565b838111156102f05750506000910152565b60008251610ce1818460208701610ca3565b9190910192915050565b6020815260008251806020840152610d0a816040850160208701610ca3565b601f01601f1916919091016040019291505056fea2646970667358221220ab8f7fe8247dc7ba5f1736f8801ac752d9989132f462b85a54c92d07e37567f664736f6c634300080c0033",
  "linkReferences": {},
  "deployedLinkReferences": {}
}