{
  "_format": "hh-sol-artifact-1",
  "contractName": "veAllocate",
  "sourceName": "contracts/ve/veAllocate.sol",
  "abi": [
    {
      "anonymous": false,
      "inputs": [
        {
          "indexed": true,
          "internalType": "address",
          "name": "sender",
          "type": "address"
        },
        {
          "indexed": true,
          "internalType": "address",
          "name": "nft",
          "type": "address"
        },
        {
          "indexed": true,
          "internalType": "uint256",
          "name": "chainId",
          "type": "uint256"
        },
        {
          "indexed": false,
          "internalType": "uint256",
          "name": "amount",
          "type": "uint256"
        }
      ],
      "name": "AllocationSet",
      "type": "event"
    },
    {
      "inputs": [
        {
          "internalType": "address",
          "name": "user",
          "type": "address"
        }
      ],
      "name": "getTotalAllocation",
      "outputs": [
        {
          "internalType": "uint256",
          "name": "",
          "type": "uint256"
        }
      ],
      "stateMutability": "view",
      "type": "function"
    },
    {
      "inputs": [
        {
          "internalType": "address",
          "name": "user",
          "type": "address"
        },
        {
          "internalType": "address",
          "name": "nft",
          "type": "address"
        },
        {
          "internalType": "uint256",
          "name": "chainid",
          "type": "uint256"
        }
      ],
      "name": "getveAllocation",
      "outputs": [
        {
          "internalType": "uint256",
          "name": "",
          "type": "uint256"
        }
      ],
      "stateMutability": "view",
      "type": "function"
    },
    {
      "inputs": [
        {
          "internalType": "uint256",
          "name": "amount",
          "type": "uint256"
        },
        {
          "internalType": "address",
          "name": "nft",
          "type": "address"
        },
        {
          "internalType": "uint256",
          "name": "chainId",
          "type": "uint256"
        }
      ],
      "name": "setAllocation",
      "outputs": [],
      "stateMutability": "nonpayable",
      "type": "function"
    }
  ],
  "bytecode": "0x608060405234801561001057600080fd5b506102f6806100206000396000f3fe608060405234801561001057600080fd5b50600436106100415760003560e01c8063540ffae8146100465780639bf648d31461005b578063c49a153e146100ab575b600080fd5b6100596100543660046101f8565b6100d4565b005b61009961006936600461022d565b6001600160a01b039283166000908152602081815260408083209490951682529283528381209181529152205490565b60405190815260200160405180910390f35b6100996100b9366004610259565b6001600160a01b031660009081526001602052604090205490565b336000818152602081815260408083206001600160a01b038716845282528083208584528252808320549383526001909152902054610114908590610291565b61011e91906102a9565b33600090815260016020526040902081905561271010156101765760405162461bcd60e51b815260206004820152600e60248201526d26b0bc1020b63637b1b0ba34b7b760911b604482015260640160405180910390fd5b336000818152602081815260408083206001600160a01b038716808552908352818420868552835292819020879055518681528493917fa147c6cd0dd0fe2f649713a01540a2dcc9a47d469fb689f358031bf7f2f67011910160405180910390a4505050565b80356001600160a01b03811681146101f357600080fd5b919050565b60008060006060848603121561020d57600080fd5b8335925061021d602085016101dc565b9150604084013590509250925092565b60008060006060848603121561024257600080fd5b61024b846101dc565b925061021d602085016101dc565b60006020828403121561026b57600080fd5b610274826101dc565b9392505050565b634e487b7160e01b600052601160045260246000fd5b600082198211156102a4576102a461027b565b500190565b6000828210156102bb576102bb61027b565b50039056fea2646970667358221220ae53323ddd95664fe758c86e82a00adec247c2aa48f733fb8b5d7cae91590bf864736f6c634300080c0033",
  "linkReferences": {},
  "deployedLinkReferences": {}
}